:020000040800F2
:10000000C80E0020B9010008FF2C0008FD2C0008D4
:1000100000000000000000000000000000000000E0
:10002000000000000000000000000000032D000898
:100030000000000000000000012D0008052D000850
:10004000CB010008CB010008CB010008CB01000860
:10005000CB010008450C0008CB010008550C000836
:10006000CB010008CB010008250C0008350C000866
:10007000CB010008CB010008CB010008CB01000830
:10008000CB010008CB010008CB010008CB01000820
:10009000CB010008CB010008CB010008CB01000810
:1000A000CB010008CB010008CB010008CB01000800
:1000B000CB010008CB010008CB010008CB010008F0
:1000C00000F002F800F04CF812A030C808382418EC
:1000D0002D18AC4201D100F043F80FCCA246AB463C
:1000E0000CA730CF2D1B083F3F197C427F1E544484
:1000F0002D090426F441641EAC4201D300F030F80F
:100100000126334200D0FB1A3343984754465D46DC
:10011000DFE70000C4400000E4400000103A02D3D2
:1001200078C878C1FAD8520701D330C830C101D598
:1001300004680C6070470000704700000023002432
:1001400000250026103A01D378C1FBD8520700D30E
:1001500030C100D50B6070471FB51FBD10B510BD75
:1001600000F02CFD1146FFF7F7FF03F0FDF800F05B
:1001700044FD03B4FFF7F2FF03BC00F04BFD0000A9
:1001800070B505460C46164602E00FCC0FC5103E72
:10019000102EFAD2082E02D303CC03C5083E042E3B
:1001A00007D301CC01C5361F03E021782970641CF8
:1001B0006D1C761EF9D270BD07488047074800477E
:1001C000FEE7FEE7FEE7FEE7FEE7FEE70448054937
:1001D000054A064B704700000D2D0008C1000008BD
:1001E000C8080020C80E0020C80A0020C80A002045
:1001F00030B5441C03E00178401C00290DD0810774
:10020000F9D10B4BDD0104C8D11A91432940FAD032
:10021000001B0A0603D0C01E30BD001B30BD0A04FF
:1002200001D0801E30BD0902FCD0401E30BD000050
:1002300001010101F8B5042A2CD3830712D00B78F1
:10024000491C0370401C521E83070BD00B78491CBD
:100250000370401C521E830704D00B78491C0370A6
:10026000401C521E8B079B0F05D0C91ADF002023AC
:10027000DE1B08C90AE0FFF783FFF8BD1D4608C969
:10028000FD401C46B4402C4310C0121F042AF5D276
:10029000F308C91A521EF0D40B78491C0370401C95
:1002A000521EEAD40B78491C0370401C012AE4D486
:1002B00009780170F8BD01E004C0091F0429FBD2D0
:1002C0008B0701D50280801CC90700D002707047DF
:1002D00000290BD0C30702D00270401C491E02291E
:1002E00004D3830702D50280801C891EE3E7002225
:1002F000EEE70022DFE77047704770470246C80FFD
:10030000C00781434B0030B54B405B009B0D20D0B4
:100310001923DB06C91801231B05994220DB03249E
:10032000A40704251346AB400BD3002B04D1EB06E6
:1003300013409B00E34204D40124640700231219F4
:100340005941FF231B0599420BD2C9000143500FAD
:1003500009E0CB0204D501430803024305D0054858
:1003600030BDFF21C905084330BD084607210905F6
:10037000884330BD0000C07FF0B50C46871A9C4111
:100380000D46861A9D4103D2C01BA141D21963417B
:100390000D0D1F0DC94EEC1BAE435CD07F057F0DCC
:1003A0000026002F51D02D05AC46A943DD020123C4
:1003B000ED0A1B051D4320231B1B24D41746E740D1
:1003C000381871412F46E740CC199D402818314616
:1003D00061410C0D27D161449A4013D50023401C84
:1003E000594152000ED14008400001224B005205F5
:1003F000D34207D305204007C14201D5B04900E0F0
:10040000B0493046F0BD6B00002A00D001229A1896
:100410001F23203C1B1B01D5002302E0E5402818C8
:1004200071410C0DD7D0012424050919C407CD074B
:1004300040084908E40F28436144002CD5D000242B
:10044000401C61419A40D0D1CDE76A05520DD9D107
:10045000C90FC907D5E79C4D4E00002801D00124E3
:1004600000E0002434195F00002A01D0012600E0DA
:100470000026BE19954FAC420CD8AE420AD8B44201
:1004800006D001256D05EC42BCD010461946F0BDE2
:100490009942FCD000203946F0BDF0B51FB40C469F
:1004A0000F46811A9F412546861A9D4106D2012595
:1004B000ED076F40401ABC4152187B41210D1E0DC3
:1004C0008D1BAC467D4D8D437ED075056D0D7CD06A
:1004D0000D05AE46AC431B031B0B794D52429D41AB
:1004E000202366469B1B14D31746F7403818002676
:1004F0000090744160462F460741E41900989D40E2
:100500002818664116D4714671189A4025D50123E2
:1005100020E093182A466A415200002B00D0521C5A
:100520001E23203E9B1B002B61DD3541EE17281852
:100530006641E8D5001876415B1C9A4000D3401C08
:100540004B05F3181524E34010D3002B52D071460D
:100550007118D30FC01802D3491C05B0F0BD012398
:10056000DB079A42F9D140084000F6E70122520524
:10057000B21801D1002853D00123CC0ADB029943E1
:10058000891E002A08D1020C03D0020C0004103985
:1005900002E00246002020390023550B05D112024B
:1005A0000823550B01D152010D23550C01D1120125
:1005B0001B1DD50C01D192009B1C150D01D15200C1
:1005C0005B1C2025EE1A01E02CE022E00546F540F8
:1005D00015439840CA1AE10769181305C918002A7B
:1005E000BBDA032040070818C10FC9070FE07146A6
:1005F0006118B2E7F10740080843711071444A00DE
:100600000CD001235B059A42A7D2C90FC90700206D
:10061000A3E74905490D26D1002001E00028F4D1C7
:1006200000219AE7284D6600002801D0012100E052
:10063000002171185F00002A01D0012600E0002689
:10064000BE19224FA94210D8AE420ED8B14208D0EE
:1006500001256D05E94206D01946A8024140104621
:100660007BE79C4201D0214677E70020394674E7BA
:1006700010B50C465C4005D50124E4076340FFF744
:100680000CFF10BDFFF778FE10BD30B40C465C4087
:1006900004D50124E407634030BC6DE630BCFCE6C1
:1006A00070B50124E40761400D465D4002D4FFF7B8
:1006B00063FE70BD6340FFF7F0FE70BDFF070000F2
:1006C0000000F0FF0000F07F0000E0FF0000F87F76
:1006D000F0B5F94D0C091E092C402E402F468BB069
:1006E000A7437DD0B543FCD0002E7AD0002CFCD09F
:1006F0000D465D40ED0F2543AC1BFF25AD0464198D
:100700000894C502440DC9022143500DDC02044384
:100710000120C00701430443D2020191200C110CB7
:1007200000958C46010423468B430A9161460904D7
:10073000E24D8A430991010A7D44491980390978BB
:1007400005464D4301266D18F605751B6943C90C16
:10075000640B891C4C436418B5012C1B250C2E041A
:10076000B4434C434D43210C691889090591009D00
:10077000E90701D00121C90704912C4601996708B6
:10078000CD072F434C08059DE10B4D432D0C294609
:100790006646754302950D4645432E46029D7D1BD8
:1007A000B44100950D465D4301942C0C2F040D4679
:1007B0005543AE462D0C3D43029503947546049C6B
:1007C0002D04641B049406D2029C039D641C002625
:1007D00075410395029401AC70CC009F7D1B01E034
:1007E0003EE162E1B4410904009507910194059945
:1007F000A4086143090C0C464443650BE7040C460E
:1008000066467443A646640B3C43039502947446C3
:10081000049DE4042C1B049406D2029C039D641CDA
:10082000002675410395029401AC70CC009F7D1B9E
:10083000B44101940C465C430095650FE7000C46FB
:100840005443A646640F3C43039502947446049DAA
:10085000E4002C1B049406D2029C039D641C002619
:1008600075410395029401AC70CC009F7D1BB4418F
:10087000AE09AF06049DC900AD092F43049DA4062F
:10088000AD060495079D344369180791059DE10B5A
:100890004D432D0C29466646754302950D4645434A
:1008A0002E46029D7D1BB44100950D465D4301948B
:1008B0002C0C2F040D465543AE462D0C3D4302959E
:1008C00003947546049C2D04641B049406D2029C78
:1008D000039D641C002675410395029401AC70CC05
:1008E000009F7D1BB44101948C050694079C890AE6
:1008F000611800950791019C0599A4086143090CB2
:100900000D464543680BEF040D46644665436C0B8A
:100910003C43049FED047D1BAC4602D20025641CC1
:100920006841009E019D371B85410846584301954B
:100930000C46460FC5005443600F28436546E4004B
:100940002C1B02D20025401C6E41019D3F1AB5416F
:100950002846BD09800628438446A009BF064E02EA
:100960000699A40676180743079D002068410A9956
:10097000079019430020099B00906046FF1913431C
:100980004041E20F64003A43A4460446D71A8C4122
:10099000A04203D90120009020463A46C70F941880
:1009A00040416246D20F2243644664000494009C96
:1009B000BE466400D71AA446044602978C41774687
:1009C000002F01D1A04204D96046401C8446029AFF
:1009D0002046C40FA64694184041049A0546D20FFB
:1009E000224364466400D31A8D417146002901D127
:1009F000A84202D928461A46641C10430122002846
:100A000000D0164361020020079B891904465C410F
:100A10000223002C02DB491813466441089DCE0ACC
:100A20002D145D194B056705E10A2C050D19089970
:100A30003E43C9076940002B08D0934006D30022EB
:100A4000761C5141002B01D1760876001C4A002DFE
:100A500043DB154241D0AA433FD030460BB0F0BD36
:100A600006180D464D41174C7642AC411AD39518E5
:100A70001C465C41134A6D42A24113D30122520528
:100A80004C00D4420AD15C00D4420BD04B4002D57A
:100A900092021143E2E749004908DFE75940C90FD4
:100AA000C90718E000200849D8E7054801420DD1E0
:100AB0000342F7D0F2E700000000FF07CE39000044
:100AC0000000F07F0000E0FF0000F87F114859406F
:100AD0000143C01241400020C0E70123089A9B0651
:100AE0009A4205DC032252078918C90FC907B5E7E6
:100AF000052252078918074A1143D2125140ADE727
:100B000070B515461C4602460B4628462146FFF79F
:100B1000DFFD70BDFFFFFF7F1F22030C02D10F22FC
:100B2000000402D0030E03D004E000200146704709
:100B30000002083A030F01D10001121F830F01D1F7
:100B40008000921E002801DB4000521E1205511841
:100B50004205C012411810467047C10FC90700D0A6
:100B60004042012292071143D6E701218907D3E7CA
:100B700010B501469E240002CA15A307002A02D020
:100B80001843002A04DBA21A002A0CDDD04010BD55
:100B90001206120E01D140004008A21A03D4D04020
:100BA00040420028F3DDFF2248001206904201D99E
:100BB000002010BDC817C043584010BD754600F056
:100BC00025F8AE46050069465346C008C000854674
:100BD00018B020B5FFF7FAFA60BCB6460026002729
:100BE000C0C5C0C5C0C5C0C5C0C5C0C5C0C5C0C5DD
:100BF000403D490849008D46704710B50446C0463F
:100C0000C0462046FFF7B5FA10BD00000048704707
:100C10001000002001491820ABBEFEE726000200AC
:100C20007047000080B5024800F086FA80BDC046DB
:100C30007403002080B5024800F07EFA80BDC046F3
:100C4000B803002080B5012000F084FB022000F0F2
:100C500081FB80BD10B50124A00300F07BFBE00305
:100C600000F078FB10BDEFF3108072B6FEE7F0B530
:100C70002024045D661E0568AC68012E10D8E600CD
:100C8000760F10D0A001800F0124264686401E60FA
:100C90008E68002E0BD0CF684B68DB003B4309E029
:100CA00001218C0401E001214C0524302BE0CE68A9
:100CB0000B685B0533430326F601AD1900012B5089
:100CC00028180B694360097D012905D1011D012305
:100CD0001B020D681D430D60D179090693791B0431
:100CE000591853791B02C9181379C918C160D178F2
:100CF000090693781B04591853781B02C9181278F7
:100D00008918816000210268224302600846F0BD14
:100D1000F0B584B00246012015682023D35C5B1E29
:100D2000012B28D8400228180368012213430360CE
:100D30004E691F24344002921346A340C4699C4369
:100D4000C461DC430394CF69012F1AD0002F33D143
:100D5000C768039C2740C760F700EC1901948C8892
:100D6000CF683F04E41900940927BF01019C009A51
:100D7000E2510F4617E08104536A0B43536204B0FB
:100D8000F0BDC4681C43C460F4002C1901948F8822
:100D90000C6824043C1900940927BF01019C009AA7
:100DA000E2510F460C37F4002C193D888E6836044A
:100DB000AD199126B600A55145688C69002C01D06B
:100DC0001D4301E0039C2540456045690C69002CEA
:100DD00005D01D434561096A012906D008E0039C3E
:100DE00025404561096A012902D1C1691943C161E0
:100DF0000168029A91430160002004B0F0BD2022F6
:100E0000825C521E012A03D8002903D0102102E07F
:100E1000002070470C2100684158032008407047AB
:100E2000F0B583B02026845D641E012C16D80568B9
:100E3000002917D02C69A40717D002961B2424017F
:100E40002C1901910D0166590427374097606119EB
:100E50006459002F0DD1640D14600CE001218B0446
:100E6000243050E0EC68A407E7D1243001214B0581
:100E700049E0E40854600C6802272740D7600F1D42
:100E80004C68240705D43C6800940F24009E34402D
:100E900000E0082414613C68240AE4B294613C68D0
:100EA000240C54618A681A70026852193724E400CD
:100EB0001259120A5A70026852191259120C9A7079
:100EC000026852191259120EDA70026852196F2410
:100ED000A40012591A71026852191259120A5A7151
:100EE000026852191259120C9A7102685219125959
:100EF000120EDA7100680199002901D0103000E06B
:100F00000C300021029B02681A430260084603B0BD
:100F1000F0BDF0B581B000281DD00446202000901F
:100F2000205C002802D1204600F07EF827462037BA
:100F30002068016801252943016000F0F3FA0646A4
:100F400020684168C9070AD100F0ECFA801B0B2821
:100F5000F6D3012513E00125284601B0F0BD016854
:100F600002229143016000F0DDFA064620684168E4
:100F700089070DD500F0D6FA801B0B28F6D368043C
:100F8000616A0143616205203870284601B0F0BDF6
:100F9000217E491E4A424A41D101026880239A4378
:100FA00051180160617E491E4A424A41910102681E
:100FB00040239A4351180160A17E491E4A424A418A
:100FC00051010268009B9A4351180160E17E491E5D
:100FD0004A1E91410901026810239A435118016089
:100FE000217F491E4A424A41D100026808239A43A0
:100FF00051180160617F491E4A424A4191000268CE
:1010000004239A4351180160261D6ECE13432B43CF
:101010003343491E1943C1610025656201203870C0
:10102000284601B0F0BD000010B586B00021059142
:1010300004910391029101910068134A904201D0FA
:1010400006B010BD01204206104B9C6814439C6002
:101050009C6814400094009A80041A6802431A6045
:101060001A68024000920420059003910220029029
:1010700003200490000201900098054801A900F0A7
:1010800075F906B010BDC04600640040141002405F
:1010900000040048F0B581B004462020205C0128FF
:1010A0001ED12646203602203070206801680122B9
:1010B00017469143016000F035FA05462068406804
:1010C000C00714D000F02EFA401B0B28F6D3384688
:1010D0007904626A0A4362620521317001B0F0BD91
:1010E0000120C104626A0A43626201B0F0BD0020BF
:1010F000606201B0F0BD10B5014620314A78022A85
:1011000012D1026813680E24A343136013680124EC
:10111000A3431360C26B006C2346834053604C7042
:10112000002000220A7010BD0422826301200022E8
:101130000A7010BD806B7047F0B585B0C16B026C52
:1011400004273C460292944003910E6821463140A8
:101150004B424B41049005682868014639404A4299
:101160004A411A4330D02B4601220227014639401A
:101170004C424C41029DAF403742019211463246EB
:1011800000D02146049E3446203400292CD008216A
:101190000840474247412846EA401107019D00D5D3
:1011A0003D46002D1ED119680E2291431960012180
:1011B0000A468240039B5A60B1630022227061702C
:1011C000316B00290CD10DE02968890602D4296809
:1011D000B943296003994C60049EF16A002901D04B
:1011E0003046884705B0F0BD1968890605D41968EE
:1011F0000A22914319600121617000212170039935
:101200004F60B16A0029EBD1ECE70000F0B585B082
:10121000002830D00546203502216970C4C8046812
:101220004168019181680291C1680391016904914B
:101230001168134B0B4033433B43234301990B434A
:1012400002990B4303990B4304990B431360002449
:10125000C4620C4901632C700B490C3852181421DC
:101260000646104602F056FE800030640120687089
:10127000204605B0F0BD0124204605B0F0BDC046B3
:101280000FC0FFFF00000240F8FFFDBFF0B582B0C5
:1012900004462020255C0220012D2AD001922646FA
:1012A0002036012232707778012F20D10220707011
:1012B0000020A0632668376897433760E56B009588
:1012C000276C1546BD40009F7D6073606368102BDE
:1012D000019F00D00F46B760102B00D00199F1603C
:1012E0003168E36A002B06D00E23194309E0002180
:1012F000317002B0F0BD0A23194331603168042314
:101300009943316031681143316002B0F0BD000093
:10131000B0B5044600F006F90546601C02D09F48AF
:101320000078041900F0FEF8401BA042FAD3B0BDCB
:101330000121C903884207D0022803D0012806D121
:10134000B32002E0B12000E0B220014908707047EC
:101350007000002080B504490A68024202D008608B
:10136000FFF7E6FF80BDC04614040140F0B58BB026
:1013700006900C68002C00D1BDE06048069A8242BD
:1013800001D0052000E004201723DB06069AD218BE
:101390000A23DA410192042A00D3019006982030F2
:1013A0000090002635463346099122460BE03C4327
:1013B000089E14605B1C0A681046D840361DAD1CA0
:1013C000002800D197E0012007469F403A40F1D025
:1013D0000490089603200446AC400295E543496812
:1013E0000E460640741E012C05920795039110D8F5
:1013F000069A90682840099CE468029DAC4004432A
:101400009460C806C00F98405468BC4304435460BD
:1014100006E0032E029D03D10646059F039C1FE0B4
:10142000069AD0680799084009998C68AC40044333
:10143000D460022E059F039C12D11C2008990840FD
:101440000F218140DC08A400009A16598E43099FA1
:1014500039698140314311517C68059F032626403C
:10146000AE4006990868079A104030430860A00310
:10147000800F0999089E049A9CD05449086810432B
:101480000860086810400A900C2030400F2181400D
:1014900003241E46A6430A9C1A4AB4588C43019959
:1014A00081402143B1500999154A96684868C402A1
:1014B0000FD53E439660D66884020FD4BE43D660F3
:1014C000566884030FD4BE4356601468C00310D519
:1014D0006DE7BE439660D6688402EFD53E43D66082
:1014E00056688403EFD53E4356601468C00300D5A8
:1014F0005DE7BC435CE70BB0F0BDC04600100048A0
:10150000000401400800014000690840411E884174
:101510007047002A02D0182281507047282281503B
:1015200070470000054800687047C0461B480078B7
:1015300002490A68101808607047C046C0080020B9
:1015400080B50648016810220A430260032000F0BB
:1015500007F800F027F8002080BDC04600200240B8
:1015600070B504467D20C0000C4E317802F0D2FCEC
:1015700001460B48006802F0CDFC00F0A9FD0125F2
:10158000032C08D8002806D10025E84321462A4626
:1015900000F02AF87460284670BDC04600000020A4
:1015A0000800002082B0094801680122114301604F
:1015B0000168114001910199110742680A43426094
:1015C000406808400090009802B070471810024030
:1015D000002805D41F2108400121814001480160F5
:1015E0007047C04600E100E0002805D4032203460E
:1015F00093430A4A9A1803E00C220240064BD21881
:101600008007C00E8901C9B28140FF238340106862
:10161000984308431060704714ED00E000E400E0D8
:10162000F0B502685423D15A01242143D1525921E3
:10163000CD0000214155D65A02273743D7524019D1
:1016400084600846F0BD000070B50124002808D071
:10165000094D032141550646006801F079FE002836
:1016600001D0204670BD3046751900F02FF90024D6
:101670002C70204670BDC04691020000F0B585B0C8
:1016800000281FD00446292000012518687800286A
:1016900004D100202870204600F024F903266E7043
:1016A000206801F04BFE2079002800D1FCE0049571
:1016B000014631400391042807D20022039E002EE8
:1016C00038D161E0012005B0F0BDFC220240029457
:1016D0002346F51E691C3827D955A91C6027D95502
:1016E00000271F625F629F62DF74012159749F644B
:1016F000DF641F651F675F679F671C463834617032
:101700001D741D4660356970E7701C468834617031
:10171000EF7088215E5427616761A761E770311D12
:10172000A033741C94420E46D3D1CA1E029C039E61
:10173000002E29D0234610332821019151435A54B9
:10174000591800270F614F618F61CF7001250295F5
:101750004D70012E18D0511C3546019E4E439955AF
:1017600099190F614F618F61CF70029E4E70022DEB
:101770000AD0911C019A4A43995499180F614F61FC
:101780008F61CF70029A4A700028049D00D18BE0CF
:10179000032201461140042803D2002000295AD117
:1017A00082E00F235B010294E318FC2528401C46CD
:1017B000673C002626701C46783C26601C467C3C14
:1017C00026601C46803C26601C468D3C26701C46CC
:1017D000903CD71E27701C468F3C26701C463F3C11
:1017E00026701C46503C26601C46543C26601C4615
:1017F000583C26601C46653C26701C46173C2670EB
:101800001C46283C26601C462C3C26601C46303C6E
:1018100026601C463D3C26701C46683C7D1C25709D
:101820001C46403CBD1C25701E601C1F26601C46CB
:10183000083C26601C46153C26701C46183C22704D
:10184000151DA033521C82422A46B0D1E81E029CCC
:10185000049D002928D015221201A21828263346FB
:101860004343D0542746D418002323616361A36106
:10187000E37063703C46012916D0441C354665432D
:1018800054555419049D23616361A361E37063702F
:101890003C46022908D0801C4643905590190361AC
:1018A00043618361C370437007CC0C3C01F03CFD85
:1018B0000020207301216970A17A012904D1054615
:1018C0002046FFF7ADFE284605B0F0BD00680F4981
:1018D000884200D070470120C0050D490A68824344
:1018E0000A60704781B000680849884201D001B0A1
:1018F00070470120C00506490A6802430A6009686A
:1019000001400091009801B07047C046005C004063
:101910001C100240F0B587B004468078C0074C4FD9
:101920004FD00120059001073A1F1068084004902D
:1019300006D11068084310601068084006900698A9
:1019400002920391434F3868C00512D405980602ED
:10195000386830433860FFF7E5FD054638683042A7
:1019600007D1FFF7DFFD401B6428F7D9032007B03C
:10197000F0BD032001900002354F3968014012D0BC
:101980006268024091420ED00598000439683A68B6
:1019900002433A603A6882433A6008462E4A104051
:1019A0003860C80745D138682B4908406168014351
:1019B00039600498002804D1029A1068039988437A
:1019C00010602168C8070AD1880710D4880617D488
:1019D00088031DD40020490523D407B0F0BD386921
:1019E00003229043A26802433A618807EED50320A0
:1019F00000043A698243E068104338618806E7D5FD
:101A0000386910229043226902433A618803E1D584
:101A1000386980229043A26902433A610020490557
:101A2000DBD539694022914362690A433A6107B0C4
:101A3000F0BDFFF777FD05465F4E38688007B2D4EA
:101A4000FFF770FD401BB042F7D9019807B0F0BD19
:101A50002010024000700040FFFCFFFFF0B581B095
:101A6000002842D00D460446524B18680121084018
:101A7000A84208D21A68012082432A431A601A68D1
:101A80000240AA4251D120688207674E0CD5420716
:101A900004D5072212023368134333603268F023FF
:101AA0009A43A36813433360C00721D1414A1168A8
:101AB00001200140A94205D91168814311601168D4
:101AC000C90732D121784907574F06D507210902A6
:101AD0003A688A43E168114339603B681907890F06
:101AE000524A022912D2144655E0012001B0F0BD3D
:101AF0006268032A14D0022A4B4B0BD0181F012A0C
:101B000015D10068800308460FD514E003292CD1B5
:101B1000474C40E0181F00688001084605D50AE0E0
:101B2000414B186B8003084605D401B0F0BD006836
:101B300080070846F9D518680321009188431043AF
:101B40001860FFF7EFFC06461B4F374800680C2172
:101B50000140606880008142A8D0FFF7E3FC801B51
:101B6000B842F2D9009801B0F0BD0321CD0399022B
:101B70002B40090F2F4C645CB96A0F260E402E498A
:101B8000895DAB4203D000048342104600E0284840
:101B900002F0C0F9444338680006000F0749085CAA
:101BA000C4400C4804600320FFF7DAFC002001B0B9
:101BB000F0BDC04600200240881300008A410008A2
:101BC00004480068184909684905490F024A515CF0
:101BD000C8407047080000209A410008B0B512497B
:101BE0000A681007830F1148022B02D3032B01D17F
:101BF0000F48B0BD0323DB0394021A40240F0D4DA0
:101C00002C5D896A0F250D400B49495D9A4203D02E
:101C100001231B049A4200E0054802F07BF90146CB
:101C200020464843B0BDC0460410024000127A006E
:101C3000006CDC02A2410008B2410008F0B587B098
:101C400004460120002C00D13CE204902078C0071B
:101C5000F64E05940CD071680C200140042900D088
:101C60008FE03068800303D56068002800D131E13F
:101C70002078800721D570680007800F0ED070682B
:101C80000C210140082900D098E00320C0037168AE
:101C900001400120C003814200D08FE030688007FE
:101CA000059C03D5E068012800D013E13068F821D5
:101CB00088432169C90001433160059C20780007F1
:101CC00024D42078400736D42078C00600D4CEE053
:101CD000706B059949694A1D00D1BDE0012900D00A
:101CE0003EE1042108437063706B0121014371637D
:101CF000FFF718FC0546706B800700D5AFE0FFF7D3
:101D000011FC411B03200229F5D9DBE1706AE1696E
:101D100000297ED0012108437062FFF703FC0546CD
:101D2000706A8007CDD4FFF7FDFB401B0228F7D96E
:101D3000032007B0F0BD012003900107F0690840BF
:101D4000029006D1F0690843F061F06908400690FE
:101D500006980191DC4F3868C00546D40398040208
:101D6000386820433860FFF7DDFB054638682042BD
:101D70003BD1FFF7D7FB401B6428F7D9032007B0FE
:101D8000F0BD71680140082908D10320C0037168C3
:101D9000014001200004814200D162E7626830689E
:101DA00001214F04002A00D129E1052A00D11FE1B9
:101DB000012A00D03CE1090408433FE13068059C5A
:101DC000E168002937D0012108433060FFF7AAFB02
:101DD00005463068800700D568E7FFF7A3FB401B86
:101DE0000228F6D9032007B0F0BD05988168306A53
:101DF000B64F002900D1DDE0052900D1C5E0012959
:101E000000D1C6E0039988433062306A04218843D8
:101E1000C1E0012188437062FFF784FB0546706AC8
:101E2000800700D44DE7FFF77DFB401B0228F6D961
:101E3000032007B0F0BD012188433060FFF772FB3B
:101E400005463068800700D437E7FFF76BFB411B7E
:101E500003200229F5D935E1042188437063706BB2
:101E6000F821884305998969C90001437163059880
:101E7000007880060BD571680C2001400C294DD1EB
:101E8000706B800303D50598006A012822D105985C
:101E9000446A002C1BD070680C21014008291CD119
:101EA000012C17D00320C20370680240F16A059C20
:101EB000A36A9A420ED10F221140236B994209D195
:101EC00091040840E16A8842049800D0FAE00020BA
:101ED00007B0F0BD049807B0F0BD012002063168DC
:101EE0000492914331604706FFF71CFB0546022C24
:101EF0000AD13068384200D1C3E0FFF713FB411B21
:101F000003200229F5D9DDE030683842DFD0FFF741
:101F100009FB411B03200229F6D9D3E07168014077
:101F2000082905D10320C003716801408142A7D070
:101F3000706B0599096A002900D18FE001210A041C
:101F4000104370634C04FFF7EDFA0546706B2042B6
:101F50009DD1FFF7E7FA411B03200229F6D9B1E032
:101F6000042108437063706B012188437063FFF79D
:101F7000D9FA0546706B800700D478E7FFF7D2FAEC
:101F8000411B03200229F5D99CE00421084330625B
:101F9000306A039908433062FFF7C4FA0546306A95
:101FA00080071BD4FFF7BEFA401BB842F7D90320C5
:101FB00007B0F0BD039988433062306A042188433A
:101FC0003062FFF7AFFA0546306A800706D5FFF7A3
:101FD000A9FA411B0320B942F6D973E00298002800
:101FE000059C00D070E6F06901998843F0616BE6CA
:101FF0008A04104330600904306808431EE00A0474
:10200000904330608804316881433160FFF78AFA79
:102010000546059C3068384200D129E6FFF782FA70
:10202000411B03206429F5D94CE0C0460010024052
:102030000A04904330608904306888433060FFF7B9
:1020400071FA05463068384200D011E6FFF76AFAA7
:10205000401B6428F6D9032007B0F0BD01210A0413
:10206000904370634C04FFF75DFA0546706B2042A5
:1020700000D10CE7FFF756FA411B03200229F5D9DE
:1020800020E0F06A0F218843059A116B0143F16249
:102090007B20C00371688143D06A0843916A014381
:1020A00071603068049908433060FFF73BFA0446DA
:1020B0003068384200D00AE7FFF734FA011B0320EA
:1020C0000229F5D907B0F0BD007000408813000068
:1020D000401E010E01D0012070470749074A506099
:1020E000074803680B400321890759180160002045
:1020F0009060072111607047FFFFFF0010E000E0D3
:1021000020ED00E070B53C22825C012A01D1022062
:1021100070BD03463C3300221A703F231B02CC687B
:102120009C430F239D028E68AE432643DB024C681E
:102130009C43344307231B030D689D43254303231E
:102140005B030C699C432C434B6923430124A40388
:10215000A343C969194300684164104670BD00007B
:1021600010B53C22825C012A01D1022010BD02463A
:102170003C3202235370006843687024A3430C6808
:102180001C4383684460464CA04207DC0124A4073A
:10219000A04209D0DF4CA04206D00AE0444CA04245
:1021A00002D0DD4CA04204D18024A34349681943E6
:1021B0008160002010700121517010BD70B50028A1
:1021C00029D005463C356978002905D100212970C0
:1021D000044600F073F82046022169700268166810
:1021E00001218C07A24205D0CB4B9A4202D0C94BA9
:1021F0009A4219D170239E4383683343284EB242DA
:1022000016DD284CA24208DCC34CA24218D0284C50
:10221000A24215D042E0012070BD234CA2420FD053
:10222000224CA2420CD039E033461D4EB242E8DCCB
:10223000A24205D0B74CA24202D01E4CA2422DD1E0
:1022400003242402A34304691C4380239C43836921
:1022500023431360C368D36243689362164BD31859
:102260000A24E341072B06D80C469C40E1231C427C
:1022700001D04069106351611069C00702D0106934
:1022800088431061A972A970E97029716971A971F7
:10229000E971297269726970002070BD1C46D4E72B
:1022A000FF2B0140FF430140004801400044014032
:1022B000004001400020004000D4FEBF83B0016810
:1022C0000120820791421CD0924A91420ED0924A3C
:1022D000914214D1C0021049091F0A6802430A60E2
:1022E000096801400291029803B070470A480168EA
:1022F000022211430160006810400090009803B072
:10230000704705490A6802430A6009680140019163
:10231000019803B07047C0461C100240F0B53C2243
:10232000825C012A01D10220F0BD02463C32022328
:102330005370504E3346773B0468A0681840A06045
:102340000D6800234F2D1FDC1F2D36DD202D38D0CA
:10235000302D36D0402D00D087E0206A256A012636
:10236000B5432562A569F026B543CE6836012E43F4
:10237000A6610A25A843496801432162A068472154
:102380000143302081436AE06F2D26DD01204703A1
:10239000BD4257D00003854218461AD0702D64D133
:1023A000A06830404D688E68C9682E4309023143E9
:1023B0000143A160A068772150E0002D01D0102DCD
:1023C00053D1A06870218843054307202843A060AB
:1023D0001846137001215170F0BD502D1BD0602D97
:1023E00043D1256A1020C043266A064026620F2684
:1023F0003603A769B743CE6836033E43A661A026DD
:10240000B5434968090129432162A16867250D4345
:102410000540A56024E0206A256A0126B5432562AF
:10242000A569F026B543CE6836012E43A6610A257C
:10243000A843496801432162A06857210143202035
:1024400081430CE0A56835404E688F68C968374302
:10245000090239432943A1608003A1680143A160B7
:102460001846137001215170F0BD01201370012135
:102470005170F0BDFF00FFFF70B586B000240594D9
:10248000049403940294019400682249884217D06E
:10249000C64988423BD10120400420490A680243D2
:1024A0000A60096801400091022005900494039499
:1024B000029007200002019000980920C00623E046
:1024C0000125680415490A6802430A600A68024047
:1024D00000920098A8040A6802430A600968014053
:1024E000009105950494039402260296C020019061
:1024F00000980920C00601A9FEF738FF059504944D
:10250000039402960195064801A9FEF72FFF06B035
:1025100070BDC04600040040002C01401410024071
:1025200000040048F0B583B03C23C35C012B02D10A
:10253000022003B0F0BD07463C370223DA41032AEC
:1025400000D9B0E00297C0467A441279520097440D
:102550000197485D0268156A146A01208443146279
:10256000D14C14190A26F4419D438E682E435368BA
:1025700000930B6801939569072C00D910E103467D
:10258000A340E1273B4200D103E10C239E43CB68EB
:102590000427BB433343029F072C00D904E1A0402A
:1025A000E124204200D1FFE003200002009E864388
:1025B0004C698869344304431046183054607324CE
:1025C000A543019C254395614C685463136293694C
:1025D00008241C43946193690424A343936109690B
:1025E000C9E00268106A01273B02146A9C43146226
:1025F0007B0298438B681B02034350680C6801946C
:10260000D569DD4EB24253D01E465AE00268156AC3
:1026100001263003136A83431362D44813180A2037
:10262000C34150688C680F680197D769072B00D9A0
:10263000B4E0009434469C40E1231C4200D1A6E063
:10264000B30398434B699B010343009C10461C3025
:10265000536073231B029F43019B1B023B43D361C7
:102660004B68136473039D4323032B431362F302EC
:10267000D4691C43D461B302D4699C43D46177E02C
:102680000268106A136A1024A3431362202398433C
:102690008B681B01034350680D689469B64EB242C3
:1026A00037D01E463CE001200021397003B0F0BD58
:1026B0000326B602B3433E4CFF3CCE6836022640AA
:1026C0001E43AA4BD3180A24E341072B5BD89F4033
:1026D000E1231F4257D003231B0398434B698C69A6
:1026E0001C4323010343029F10461C305360732395
:1026F0009D43019B1D43D5614B68D3631662D3692B
:1027000008241C43D461D3690424A343D361096919
:1027100031E0C026B343CE6836014027BE431E4396
:10272000924BD3180A27FB41072B2ED801279F4035
:10273000E1231F4229D003239B0298434B698F69F1
:102740001F43BB00034310461830536073231B0222
:102750009C432B02234393614B68936316620123CE
:10276000DC029569254395619B0294699C439461C1
:1027700009690902029F02680A43026000200021E1
:10278000397003B0F0BD0346ADE70346DBE703460F
:102790005BE73346029F072C06D800E7034655E760
:1027A0003346072C00D8FAE6009C05E7002C0140D0
:1027B000FFFBFFFF70B5002829D005463C3569783E
:1027C000002905D100212970044600F06FF8204649
:1027D000022169700268166801218C07A24205D0A7
:1027E000654B9A4202D0654B9A4219D170239E43A1
:1027F000836833435E4EB24216DD274CA24208DCAA
:102800005D4CA24218D05B4CA24215D042E00120A0
:1028100070BD224CA2420FD0214CA2420CD039E014
:102820003346534EB242E8DCA24205D0534CA2429A
:1028300002D01C4CA2422DD103242402A3430469DC
:102840001C4380239C43836923431360C368D36282
:1028500043689362454BD3180A24E341072B06D8FB
:102860000C469C40E1231C4201D040691063516139
:102870001069C00702D0106988431061A972A9705D
:10288000E97029716971A971E971297269726970B8
:10289000002070BD1C46D4E7FF43014000480140C2
:1028A000004401400020004000D4FEBF70470000FB
:1028B00002463E3200290DD0042906D008290FD146
:1028C0004023C35C012B0FD015E03F23C35C012BD9
:1028D00011D109E01378012B0DD1022313700FE001
:1028E0004123C35C012B06D10223082905D004290A
:1028F00005D1537004E001207047937000E0D3705D
:102900001F221140012213468B400068016A99433F
:102910000162016A19430162144941180A23D9412D
:10292000072908D813468B40E1210B4203D0D1037D
:10293000436C0B4343640E49884206DC910788428E
:1029400009D00E49884206D00AE00A49884202D0DE
:102950000949884204D1816807230B40062B02D025
:1029600001681143016000207047C04600D4FEBFDB
:10297000FF2B014000400140002C014000040040BA
:102980007047F0B581B00446C26F802026582546B6
:10299000803521688B681B0626D5212A24D1EFF3C8
:1029A0001081012787F3108822689368834393601E
:1029B00081F31088206F002808D0FEF79CFB0028C8
:1029C00004D0206FFEF7B6FB20282BD0EFF3108049
:1029D00087F3108821680A68C0239A430A6080F34D
:1029E00010882020E067216889680020490647D5C3
:1029F000222E45D1EFF31080012686F3108821683E
:102A00008A6840239A438A6080F31088606F0028A8
:102A10000DD0FEF770FB002809D0606FFEF78AFB2F
:102A2000202804D110206860032001B0F0BDEFF32E
:102A3000108086F3108809214901226813688B43AE
:102A4000136080F31088EFF3108086F310882168FC
:102A50008A68B2438A6080F31088206E01280AD108
:102A6000EFF3108086F3108821680A6810239A43D8
:102A70000A6080F31088202028600020A06620666D
:102A800001B0F0BD7047B0B500281DD00446C06F3E
:102A9000002805D1782000212154204600F02AF892
:102AA0002420E067206801680125A9430160606A6D
:102AB000002802D0204600F02AF9204600F0AEFAA5
:102AC000002803D02846B0BD0120B0BD0920C002B7
:102AD00021684A6882434A6088682A229043886055
:102AE0000868012202430A60204600F079F9054691
:102AF0002846B0BD70B586B00446002605960496FB
:102B000003960296019600682F49884225D02F49E6
:102B1000884256D1012081032D4A53680B435360EC
:102B200053680B40009300998004116801431160C1
:102B3000116801400091059603200490039602203D
:102B40000290C02001900098244801A9FEF70EFCD5
:102B5000234D20208021204A22E01D488168012247
:102B600005925204114381608168114000910099DF
:102B70000168114301600068104000900320049038
:102B80000396022002900C20019000980920C006B4
:102B900001A9FEF7EBFB0F4D202080210E4A2832C1
:102BA0002A606E60AE60E9602E616E61A861EE61C0
:102BB0002846FEF72BFB002801D0FEF754F86C6284
:102BC000656706B070BDC046004400400038014053
:102BD00014100240B80300203000024000040048F6
:102BE00074030020F0B585B013460A468021415891
:102BF000202911D10125002A0BD0002B09D0012555
:102C0000290384688C420BD1D10709D001690029BE
:102C100006D1284605B0F0BD0225284605B0F0BD16
:102C2000049501465831074680370025056604683B
:102C30006468240211D5EFF310840394049C84F398
:102C40001088A4060294046801942668029C264316
:102C5000019C2660039C84F310887D600B80426594
:102C600022213960446F002C18D0214E2149A162E5
:102C7000E6621E49216365630168243103902046A2
:102C8000FEF704FB01460398002907D01020786066
:102C900020203860049D284605B0F0BD0169002958
:102CA0000BD0EFF31081012282F310881202036827
:102CB0001C6814431C6081F31088EFF3108101221B
:102CC00082F3108803689C6814439C6081F3108829
:102CD000EFF3108182F31088006882684023134369
:102CE000836081F31088284605B0F0BDB12E00083E
:102CF000FB2F0008632F000870477047FEE7FEE7D0
:102D00007047704780B5FEF711FC80BD7047B0B5C5
:102D1000416A0A070CD4CA0714D18A071CD44A078F
:102D200024D4CA062CD48A0634D44A063CD44CE0B7
:102D30000122D20303685C689443426B22435A60C9
:102D4000CA07EAD00122520403685C689443826A8D
:102D500022435A608A07E2D50122120403685C68A4
:102D60009443C26A22435A604A07DAD50122920488
:102D700003685C689443026B22435A60CA06D2D54A
:102D80000122120303689C689443826B22439A6079
:102D90008A06CAD50122520303689C689443C26B19
:102DA00022439A604A0610D501221305026854682E
:102DB0009C43056C2C4354609D4206D103235B0564
:102DC00054689C43436C23435360090607D5012193
:102DD000C904026853688B43806C18435060B0BDCF
:102DE000F0B583B00446064678360025F560FEF758
:102DF00099FB034620680168090721D502952B48F5
:102E0000009001256905002220461F4600F0AEF91A
:102E1000002812D0EFF3108085F3108821680A682B
:102E200080239A430A6080F31088032020227C21AB
:102E3000029D6250357003B0F0BD20683B46029D94
:102E40000068400726D5194800900127B9050022DF
:102E5000204600F08BF900281CD0EFF3108087F398
:102E6000108809214901226813688B43136080F39D
:102E70001088EFF3108087F3108821688A68BA43BE
:102E80008A6080F3108803202022802162503570F0
:102E900003B0F0BD2020E067B060256664212A46BB
:102EA00028466250357003B0F0BDC046FFFFFF01F9
:102EB000F0B581B0406AC16F802283580246523219
:102EC0000468A5682D0612D5212910D10021118092
:102ED000EFF31081012484F3108804682568C0266C
:102EE000B543256081F310882021C167046801463D
:102EF0008031A46864062CD5222B2AD100231381AB
:102F0000EFF31084012282F3108809256D01066811
:102F10003768AF43376084F31088EFF3108482F38F
:102F200010880568AE689643AE6084F31088046E1E
:102F3000012C0AD1EFF3108482F31088026815681F
:102F40001026B543156084F3108820220A6083663A
:102F500003664A68102313434B60FFF793FD01B0EB
:102F6000F0BDF0B581B00146406A02465832896929
:102F7000202934D00346803300215180EFF31084A0
:102F8000012181F310880D0206683768AF4337606E
:102F900084F31088EFF3108481F310880568AE681D
:102FA0008E43AE6084F31088EFF3108481F31088B1
:102FB0000568AE684027BE43AE6084F310882024C5
:102FC0001C60036E012B0AD1EFF3108381F310888C
:102FD00001680C681025AC430C6083F31088002155
:102FE0004166016E012904D11188FFF7C9FC01B0C7
:102FF000F0BDFFF781FE01B0F0BD80B5406A012150
:103000004166016E012905D15821415A4908FFF74F
:10301000B7FC80BDFFF771FE80BD0000B0B504466F
:1030200000680168474A0A40A16823690B43656943
:103030001D431543E1690D430560032212034368F4
:103040009343E2681A434260A269236A13430B2246
:103050001202856895431D43856000223A4B9842D1
:1030600006DC3C4B984212D03B4B984216D00CE009
:10307000364B984212D0364A904206D13748006803
:103080008007000F364A125808E0102206E0334845
:103090000068800B0C220240314882580125EB0366
:1030A0003048994210D1082A47D8C0467A4412794C
:1030B0005200974404422442194242422300FEF740
:1030C0007FFD00281BD137E0082A36D87A441279D0
:1030D00052009744043225320E3232322400FEF779
:1030E0006FFD00281CD127E0FEF778FD002806D1EF
:1030F00022E0FEF773FD002812D11DE018464000C3
:1031000061684A08101800F005FF0246103A164997
:103110008A4212D201400007400F08430AE01846D5
:1031200061684A08101800F0F5FE014610390E4A91
:10313000914202D22168C86000250020A066E066A6
:103140002846B0BDF369FFEFFF4B0040004C004044
:103150000038014000440040004800403010024068
:10316000C441000800127A00F0FF0000F0B585B0FD
:103170001F4615460E460368D9693140891B4A42ED
:103180004A410021AA4222D10A9C002C22D003915C
:10319000611C24D1D9693140891B4A424A41AA4263
:1031A00031D1D9693140891B4A424A41AA422AD1C8
:1031B000D9693140891B4A424A41AA4223D1D9697F
:1031C0003140891B4A424A41AA42E3D01BE00846EB
:1031D00005B0F0BDFEF7A6F9032005B0F0BD402E06
:1031E000049001D0802E14D1FEF79CF9C01BA042A0
:1031F0000CD8049800680168C0693040801B4142C7
:103200004141A942F0D0039805B0F0BD032005B0BC
:10321000F0BD7830019001200090C002029006E0DD
:10322000C8693040801B41424141A942EBD1FEF7C1
:1032300079F9C11B0320A1423ED8049909680A68A4
:103240005207EDD5CA69120738D4CA69029B1A42DF
:10325000E6D0029A0A62EFF31082012181F310880E
:1032600009235B01049C246825689D43256082F343
:103270001088EFF3108281F31088049B1B689C6810
:103280008C439C60049B82F310881A6E012A0BD138
:10329000EFF3108281F3108819680B681024A343A0
:1032A0000B60049B82F310882021019CA160002206
:1032B0001A669A662270E16005B0F0BD08250D62BD
:1032C000EFF31081009880F3108809225201049BCB
:1032D0001B681C6894431C6081F31088EFF3108115
:1032E00080F31088049A1268936883439360049B68
:1032F00081F31088196E01290CD1EFF3108101229E
:1033000082F310881A6813681024A3431360049B87
:1033100081F310882021019A916000211966996635
:103320001170D56005B0F0BD40220121815200210D
:103330008152403081800182084670474021425AC4
:10334000024B1340435200207047C0467F400000AC
:1033500040220121815203464033002199800323FA
:10336000835208467047000000B5B1B0FEF7E8F898
:1033700015AD281D3021FCF7BCFF00241E94012050
:103380001D9020201590279426942594249423940E
:103390002846FEF753FC002803D0EFF3108072B6E6
:1033A000FEE72F942E9403252D9507202C902CA812
:1033B00001263146FEF752FB002803D0EFF31080C0
:1033C00072B6FEE72894259424947704F81C229082
:1033D00022A8FEF79FFA002803D0EFF3108072B600
:1033E000FEE719941894179416941594F104DB4A87
:1033F00010680843106010681191084022902298CC
:10340000B1051068084310601068109108402290C0
:103410002298106838431060106838402290229833
:10342000B10410680843106010680F9108402290A2
:10343000229814966E03CA4831462246FEF769F870
:103440001894179414981690159615AEC4483146E2
:10345000FDF78CFF17941120139707041697149803
:10346000C0031590BE483146FDF780FF17941697AC
:10347000129515950920C0060E903146FDF776FF8E
:1034800017941694B7481590B74D28463146FDF766
:103490006DFF17941697B14F149880031590284626
:1034A0003146FDF763FF0525284621462246FEF7F3
:1034B0009BF80D952846FEF78BF8072528462146F0
:1034C0002246FEF791F82846FEF782F838681499EC
:1034D00008433860386814990840159015980A27F1
:1034E000384621462246FEF77FF83846FEF770F848
:1034F0000B26304621462246FEF776F83046FEF788
:1035000067F89A4E149800051021994A3265716542
:10351000B465F465139931667066B4665036B48349
:103520003046FDF7F6FC002803D0EFF3108072B6AA
:10353000FEE70C960B978F480C278F4A0462446273
:10354000E1214E0244C0046044608460C7600461AD
:1035500044610838FFF797FA002803D0EFF3108092
:1035600072B6FEE78549864841C1083908468C6035
:10357000CC600C614F618C61CC610C624C62FFF7D6
:1035800082FA002803D0EFF3108072B6FEE77D4880
:103590007D4B2F217D4A026041608460C3600461DD
:1035A000446184612F942E942D942B942A941C941E
:1035B0001B941A9419941894179416941594FEF762
:1035C000FDFD002803D0EFF3108072B6FEE71498DB
:1035D00006032C966B482CA9FEF7A0FE002803D00A
:1035E000EFF3108072B6FEE76648FFF7E3F80028B5
:1035F00003D0EFF3108072B6FEE762482AA9FEF707
:10360000AFFD002803D0EFF3108072B6FEE72494DC
:1036100060200746229025942694279428947D20A4
:1036200080002390574822A92246FEF77BFF0028FE
:1036300003D0EFF3108072B6FEE7524822A90422AD
:10364000FEF770FF002803D0EFF3108072B6FEE79C
:103650004C4822A90822FEF765FF002803D0EFF3AB
:10366000108072B6FEE71994189417941694159466
:103670001C94149840031A90424815A9FEF742FD85
:10368000002803D0EFF3108072B6FEE73D48FEF746
:10369000F3FEC5488461C54A1499890712C00460C5
:1036A0000A9242608460189417941694239422948A
:1036B0000838FEF783FD002803D0EFF3108072B6C0
:1036C000FEE71596B84815A9FEF728FE002803D096
:1036D000EFF3108072B6FEE7B34822A9FEF740FD73
:1036E000002803D0EFF3108072B6FEE7B048846183
:1036F000B04912C00460AD494160846025942494AF
:1037000023942D942C941B941A941994189408388B
:10371000FEF754FD002803D0EFF3108072B6FEE7E9
:103720002296A34822A9FEF7F9FD002803D0EFF363
:10373000108072B6FEE79E48FFF73CF8002803D0E1
:10374000EFF3108072B6FEE799482CA9FEF708FD4A
:1037500000281DD0EFF3108072B6FEE7141002406F
:1037600000080048383000000004004870000020C5
:1037700000640040B00700200038014038080020F5
:1037800000440040D8060020E7030000002C014060
:103790001994179416941597854815A92246FEF793
:1037A000C1FE002803D0EFF3108072B6FEE7804818
:1037B00015A904220092FEF7B5FE002803D0EFF30E
:1037C000108072B6FEE77A4815A908220592FEF726
:1037D000A9FE002803D0EFF3108072B6FEE774480C
:1037E000FEF74AFE74484481447202210691C17179
:1037F0004121C9000191818070490160FDF73EFFC0
:10380000002803D0EFF3108072B6FEE729026C485F
:1038100008910162009941628462059EC6621A9411
:1038200014991D9119940E201E901C911B945F48B1
:1038300017906448169015941298C04318900C9DE8
:103840002846FDF766FB15A92846FDF761FA2846CC
:10385000FDF720FC5C4D2846FFF715F95B49C827AA
:1038600028463A46FFF7BEF9594D2846FFF70BF9AF
:10387000584928463A46FFF7B5F9574D284621469C
:10388000FFF716F82846009F3946FFF711F828463B
:103890003146FFF70DF8444D28463146FFF708F84A
:1038A0000C212846FFF704F8414D28462146FEF733
:1038B000FFFF28463946FEF7FBFF28463146FEF754
:1038C000F7FF4548006844638463C4632868446321
:1038D0008463C4632CA8401C079006E038488168C4
:1038E0000C98FDF78CFA002813D1354800788442F3
:1038F000F4D0334C0699E1626B2161732073214649
:103900001C3122460C32231D0C98FDF7B0F92478A7
:10391000E4E72B4DA9682A4634322B4614330C9821
:10392000FDF77EFA287DAA38372800D9BAE0400092
:10393000784480884000874451005F006D007B0020
:10394000B500B500B500B500B500B500B500B500CF
:10395000B500B500B500B500B900EE000C01B5002A
:10396000B500B500B500B500B500B500B500B500AF
:10397000B500B500B500B5003501B500B500B5001E
:10398000B500B500B500B500B500B500B500B5008F
:10399000B500B500B500B5004001B500B500B500F3
:1039A000B500B50057015E0120070020FFFF0000B1
:1039B0006807002000040040FC030020005C004079
:1039C0007000002004380000B0070020E201002051
:1039D00038080020AA020020D8060020FE48407DBA
:1039E00001090A2900D138E10C2900D137E10B295E
:1039F00000D036E1FD4935E1FE48427D10090A2834
:103A000000D16FE10C2800D16EE10B2800D06DE1F0
:103A1000F9486CE1F748427D10090A2800D172E1AB
:103A20000C2800D171E10B2800D070E1F2486FE161
:103A3000F048827D417D002026902590249023909F
:103A400009902290ED4D2868119B18432860286842
:103A500018402C902C982868109B184328602868E0
:103A600018402C902C982868139B184328602868CD
:103A700018402C902C9828680F9B184328602868C1
:103A800018402C902C9808090A2800D14CE10C28E9
:103A900000D14EE10B2800D050E101270025069807
:103AA000D54E4FE1D34840880990C8E1D148417DC7
:103AB0000229D34800D0D3480129D34900D0014678
:103AC0000E6800207063B063F06309903064C949E8
:103AD000087EC97D09020918CE48401C81420B9816
:103AE00000D86420C94A9142099D00D80546C848BB
:103AF00000F010FA691C00F00DFA401E0A9080B226
:103B0000F062B56240087063B063F063F149099AEE
:103B10004A80306493E1EF48807D401EC1B20329A2
:103B200065D8EC494A7D022AEE4900D0EE49012AC7
:103B3000EB4A00D00A4611688006000E0D180A985C
:103B400081B2E448C07D4843642100F0E3F980B2CB
:103B500026E0E048807D401EC1B2032947D8DD49F8
:103B60004A7D022ADF4900D0DF49012ADC4A00D021
:103B70000A4611688006000E0D18D649087EC97DD8
:103B800009020818FCF7E9FFDD4ADE4BFCF770FD7F
:103B9000DD4ADE4BFCF79CFDFCF7B0FBFCF7E8FFD1
:103BA000686324E0CB48407D0128CB4ED14F38D00C
:103BB000022834D1C94ED04F33E0C64D687D00068F
:103BC000A97D09040818E97D09024018297E4018DA
:103BD00028620890C000011D1691000C159015A9CF
:103BE0000C98FDF795F88AE0C048FDF72DFD0021FF
:103BF000B848099111E00021BC4841810991417206
:103C00000699C171BA49016001998180FDF736FDBD
:103C1000002800D055E1AF48099941800FE1039E8B
:103C2000029F3046FEF7ADFEC822B448394615461D
:103C3000FCF700FB38462946FCF759FB304639466D
:103C40002A46FEF7CFFFAD48FCF7D2FA0146A1485D
:103C50000991418003960297F1E00E9902E09C4998
:103C600000E0002104919B498F7D00212691259140
:103C70002491239109912291944B1968119A11432F
:103C80001960196811402C912C991968109A1143E8
:103C90001960196811402C912C991968139A1143D5
:103CA0001960196811402C912C9919680F9A1143C9
:103CB0001960196811402C910F2108400126864097
:103CC0002C98002F04D0002204983146FDF721FCE7
:103CD000099D2595249522968D48C05D239022A9A3
:103CE0000498A8E00E9802E0794800E000200F2137
:103CF0000A4001219140774DAA7DFDF70AFC002082
:103D0000099068809BE00E9802E0714800E0002076
:103D10000F210A40012529469140FDF7F5FB77491F
:103D200008706C48099589E0149D0D98099F0E9EB6
:103D300008E0012700250698654E03E000250127CD
:103D400006982E46B13A1F2A099B66D8920002A314
:103D50009A58099B9746C046E13D0008E13D00089E
:103D6000E93D0008DD3D0008F13D0008E53D0008A3
:103D7000E53D00081B3E00081B3E00081B3E0008F6
:103D80001B3E00081B3E00081B3E00081B3E0008AF
:103D90001B3E00081B3E0008193E0008E93D0008D4
:103DA000DD3D0008DD3D00081B3E00081B3E00080D
:103DB0001B3E00081B3E00081B3E00081B3E00087F
:103DC0001B3E00081B3E00081B3E00081B3E00086F
:103DD0001B3E0008DD3D000870000020009B1CE039
:103DE00002231AE0034618E0012316E0000400480D
:103DF0003B4612E07000002000040048141002400E
:103E00002007002068070020D806002010270000A7
:103E1000006CDC02E70300002B46269312982590E5
:103E2000099D2495022023900F2001400120884005
:103E3000229022A93046FDF799FA26484580254868
:103E4000067D00252595042024902C4F07220798F5
:103E50003946FCF7EFF92CA80670099800B206283D
:103E600016DD05982690284608990843239022A934
:103E70002CAA2AAB0C98FCF7FAFE0120FDF748FAB1
:103E8000FF1D6D1C0998C01F09901E2DDED12CE569
:103E90000998801CC0B226902CAA8018401E6B2165
:103EA000017008980543239522A92AAB0C98FCF7CA
:103EB000DEFE0120FDF72CFAFA211048FCF719FA72
:103EC00013E5EFF3108072B6FEE7C046141002400F
:103ED0000008004870000020B007002038080020CB
:103EE000D80600202007002068070020FC030020DF
:103EF000005C0040E2010020AA020020E80000204F
:103F0000666666666666E63F713D0AD7A370CD3F7A
:103F1000D441000843088B421AD3002203098B4284
:103F200079D3030A8B425ED3030B8B4242D3030C3B
:103F30008B4227D30902FF2212BA030C8B4202D311
:103F40001212090203D0030B8B4233D31AE0D3E0E1
:103F5000411A8041401C704703460B4371D443080B
:103F60008B42F5D3002203098B4254D3030A8B42C0
:103F700039D3030B8B421DD3030C8B4202D39446DF
:103F80006EE0090AC30B8B4201D3CB03C01A524126
:103F9000830B8B4201D38B03C01A5241430B8B42DC
:103FA00001D34B03C01A5241030B8B4201D30B03C5
:103FB000C01A5241C30A8B4201D3CB02C01A5241EC
:103FC000830A8B4201D38B02C01A5241430A8B42AF
:103FD00001D34B02C01A5241030A8B4201D30B0298
:103FE000C01A5241CDD2C3098B4201D3CB01C01AB2
:103FF000524183098B4201D38B01C01A52414309BC
:104000008B4201D34B01C01A524103098B4201D3A9
:104010000B01C01A5241C3088B4201D3CB00C01A16
:10402000524183088B4201D38B00C01A524143088E
:104030008B4201D34B00C01A5241411A5241100029
:104040007047CA0F00D04942031000D3404253408A
:1040500000229C4603098B422DD3030A8B4212D3C4
:104060008901FC2212BA030A8B420CD389019211F6
:104070008B4208D3890192118B4204D3890137D036
:10408000921100E08909C3098B4201D3CB01C01A08
:10409000524183098B4201D38B01C01A524143091B
:1040A0008B4201D34B01C01A524103098B4201D309
:1040B0000B01C01A5241C3088B4201D3CB00C01A76
:1040C000524183088B4201D38B00C01A5241D9D28E
:1040D00043088B4201D34B00C01A5241411A00D20F
:1040E00001465241104663465B1000D34042704780
:1040F00063465B1000D3404201B50021004201D06D
:10410000C9430846C046C04602BD80807F7E7D7C94
:104110007B7A7978777676757473727171706F6E59
:104120006E6D6C6C6B6A6A69686867666665646404
:10413000636362616160605F5F5E5E5D5D5C5C5B8E
:104140005B5A5A59595858575756565555555454FD
:10415000535352525251515050504F4F4F4E4E4D5B
:104160004D4D4C4C4C4B4B4B4A4A4A4949494848A7
:1041700048474747474646464545454444444443E7
:10418000434343424242424141410000000000009B
:1041900000000102030406070809000000000102F4
:1041A000030402030405060708090A0B0C0D0E0F91
:1041B00010100102030405060708090A0B0C0D0E76
:1041C0000F100000000000000400000008000000C4
:1041D0000200000000010203F84100080000002076
:1041E000100000001C010008084200081000002018
:1041F000B80E00003C0100080100000004000000AF
:0842000000127A00000000002A
:04000005080000C12E
:00000001FF
